{
  "_format": "hh-sol-artifact-1",
  "contractName": "Transactions",
  "sourceName": "contracts/Transactions.sol",
  "abi": [
    {
      "inputs": [],
      "stateMutability": "nonpayable",
      "type": "constructor"
    },
    {
      "anonymous": false,
      "inputs": [
        {
          "indexed": false,
          "internalType": "address",
          "name": "from",
          "type": "address"
        },
        {
          "indexed": false,
          "internalType": "address",
          "name": "receiver",
          "type": "address"
        },
        {
          "indexed": false,
          "internalType": "uint256",
          "name": "amount",
          "type": "uint256"
        },
        {
          "indexed": false,
          "internalType": "string",
          "name": "message",
          "type": "string"
        },
        {
          "indexed": false,
          "internalType": "uint256",
          "name": "timestamp",
          "type": "uint256"
        },
        {
          "indexed": false,
          "internalType": "string",
          "name": "keyword",
          "type": "string"
        }
      ],
      "name": "Transfer",
      "type": "event"
    },
    {
      "inputs": [
        {
          "internalType": "address payable",
          "name": "receiver",
          "type": "address"
        },
        {
          "internalType": "uint256",
          "name": "amount",
          "type": "uint256"
        },
        {
          "internalType": "string",
          "name": "message",
          "type": "string"
        },
        {
          "internalType": "string",
          "name": "keyword",
          "type": "string"
        }
      ],
      "name": "addToBlockchain",
      "outputs": [],
      "stateMutability": "nonpayable",
      "type": "function"
    },
    {
      "inputs": [],
      "name": "getAllTransactions",
      "outputs": [
        {
          "components": [
            {
              "internalType": "address",
              "name": "sender",
              "type": "address"
            },
            {
              "internalType": "address",
              "name": "receiver",
              "type": "address"
            },
            {
              "internalType": "uint256",
              "name": "amount",
              "type": "uint256"
            },
            {
              "internalType": "string",
              "name": "message",
              "type": "string"
            },
            {
              "internalType": "uint256",
              "name": "timestamp",
              "type": "uint256"
            },
            {
              "internalType": "string",
              "name": "keyword",
              "type": "string"
            }
          ],
          "internalType": "struct Transactions.TransferStruct[]",
          "name": "",
          "type": "tuple[]"
        }
      ],
      "stateMutability": "view",
      "type": "function"
    },
    {
      "inputs": [],
      "name": "getTransactionCount",
      "outputs": [
        {
          "internalType": "uint256",
          "name": "",
          "type": "uint256"
        }
      ],
      "stateMutability": "view",
      "type": "function"
    },
    {
      "inputs": [],
      "name": "transactionCount",
      "outputs": [
        {
          "internalType": "uint256",
          "name": "",
          "type": "uint256"
        }
      ],
      "stateMutability": "view",
      "type": "function"
    }
  ],
  "bytecode": "0x60806040526000805534801561001457600080fd5b50610e4d806100246000396000f3fe608060405234801561001057600080fd5b506004361061004c5760003560e01c806327506f53146100515780632e7700f01461006f578063b77bf6001461008d578063cc2d7ead146100ab575b600080fd5b6100596100c7565b6040516100669190610707565b60405180910390f35b61007761030a565b6040516100849190610738565b60405180910390f35b610095610313565b6040516100a29190610738565b60405180910390f35b6100c560048036038101906100c09190610906565b610319565b005b60606001805480602002602001604051908101604052809291908181526020016000905b8282101561030157838290600052602060002090600602016040518060c00160405290816000820160009054906101000a900473ffffffffffffffffffffffffffffffffffffffff1673ffffffffffffffffffffffffffffffffffffffff1673ffffffffffffffffffffffffffffffffffffffff1681526020016001820160009054906101000a900473ffffffffffffffffffffffffffffffffffffffff1673ffffffffffffffffffffffffffffffffffffffff1673ffffffffffffffffffffffffffffffffffffffff168152602001600282015481526020016003820180546101d4906109d4565b80601f0160208091040260200160405190810160405280929190818152602001828054610200906109d4565b801561024d5780601f106102225761010080835404028352916020019161024d565b820191906000526020600020905b81548152906001019060200180831161023057829003601f168201915b5050505050815260200160048201548152602001600582018054610270906109d4565b80601f016020809104026020016040519081016040528092919081815260200182805461029c906109d4565b80156102e95780601f106102be576101008083540402835291602001916102e9565b820191906000526020600020905b8154815290600101906020018083116102cc57829003601f168201915b505050505081525050815260200190600101906100eb565b50505050905090565b60008054905090565b60005481565b60008081548092919061032b90610a34565b919050555060016040518060c001604052803373ffffffffffffffffffffffffffffffffffffffff1681526020018673ffffffffffffffffffffffffffffffffffffffff16815260200185815260200184815260200142815260200183815250908060018154018082558091505060019003906000526020600020906006020160009091909190915060008201518160000160006101000a81548173ffffffffffffffffffffffffffffffffffffffff021916908373ffffffffffffffffffffffffffffffffffffffff16021790555060208201518160010160006101000a81548173ffffffffffffffffffffffffffffffffffffffff021916908373ffffffffffffffffffffffffffffffffffffffff1602179055506040820151816002015560608201518160030190816104619190610c28565b506080820151816004015560a08201518160050190816104819190610c28565b5050507f416cfa4330a4565f45c2fd2dd4826a83a37443aba2ce6f79477c7355afac35fa3385858542866040516104bd96959493929190610da8565b60405180910390a150505050565b600081519050919050565b600082825260208201905092915050565b6000819050602082019050919050565b600073ffffffffffffffffffffffffffffffffffffffff82169050919050565b6000610522826104f7565b9050919050565b61053281610517565b82525050565b6000819050919050565b61054b81610538565b82525050565b600081519050919050565b600082825260208201905092915050565b60005b8381101561058b578082015181840152602081019050610570565b60008484015250505050565b6000601f19601f8301169050919050565b60006105b382610551565b6105bd818561055c565b93506105cd81856020860161056d565b6105d681610597565b840191505092915050565b600060c0830160008301516105f96000860182610529565b50602083015161060c6020860182610529565b50604083015161061f6040860182610542565b506060830151848203606086015261063782826105a8565b915050608083015161064c6080860182610542565b5060a083015184820360a086015261066482826105a8565b9150508091505092915050565b600061067d83836105e1565b905092915050565b6000602082019050919050565b600061069d826104cb565b6106a781856104d6565b9350836020820285016106b9856104e7565b8060005b858110156106f557848403895281516106d68582610671565b94506106e183610685565b925060208a019950506001810190506106bd565b50829750879550505050505092915050565b600060208201905081810360008301526107218184610692565b905092915050565b61073281610538565b82525050565b600060208201905061074d6000830184610729565b92915050565b6000604051905090565b600080fd5b600080fd5b6000610772826104f7565b9050919050565b61078281610767565b811461078d57600080fd5b50565b60008135905061079f81610779565b92915050565b6107ae81610538565b81146107b957600080fd5b50565b6000813590506107cb816107a5565b92915050565b600080fd5b600080fd5b7f4e487b7100000000000000000000000000000000000000000000000000000000600052604160045260246000fd5b61081382610597565b810181811067ffffffffffffffff82111715610832576108316107db565b5b80604052505050565b6000610845610753565b9050610851828261080a565b919050565b600067ffffffffffffffff821115610871576108706107db565b5b61087a82610597565b9050602081019050919050565b82818337600083830152505050565b60006108a96108a484610856565b61083b565b9050828152602081018484840111156108c5576108c46107d6565b5b6108d0848285610887565b509392505050565b600082601f8301126108ed576108ec6107d1565b5b81356108fd848260208601610896565b91505092915050565b600080600080608085870312156109205761091f61075d565b5b600061092e87828801610790565b945050602061093f878288016107bc565b935050604085013567ffffffffffffffff8111156109605761095f610762565b5b61096c878288016108d8565b925050606085013567ffffffffffffffff81111561098d5761098c610762565b5b610999878288016108d8565b91505092959194509250565b7f4e487b7100000000000000000000000000000000000000000000000000000000600052602260045260246000fd5b600060028204905060018216806109ec57607f821691505b6020821081036109ff576109fe6109a5565b5b50919050565b7f4e487b7100000000000000000000000000000000000000000000000000000000600052601160045260246000fd5b6000610a3f82610538565b91507fffffffffffffffffffffffffffffffffffffffffffffffffffffffffffffffff8203610a7157610a70610a05565b5b600182019050919050565b60008190508160005260206000209050919050565b60006020601f8301049050919050565b600082821b905092915050565b600060088302610ade7fffffffffffffffffffffffffffffffffffffffffffffffffffffffffffffffff82610aa1565b610ae88683610aa1565b95508019841693508086168417925050509392505050565b6000819050919050565b6000610b25610b20610b1b84610538565b610b00565b610538565b9050919050565b6000819050919050565b610b3f83610b0a565b610b53610b4b82610b2c565b848454610aae565b825550505050565b600090565b610b68610b5b565b610b73818484610b36565b505050565b5b81811015610b9757610b8c600082610b60565b600181019050610b79565b5050565b601f821115610bdc57610bad81610a7c565b610bb684610a91565b81016020851015610bc5578190505b610bd9610bd185610a91565b830182610b78565b50505b505050565b600082821c905092915050565b6000610bff60001984600802610be1565b1980831691505092915050565b6000610c188383610bee565b9150826002028217905092915050565b610c3182610551565b67ffffffffffffffff811115610c4a57610c496107db565b5b610c5482546109d4565b610c5f828285610b9b565b600060209050601f831160018114610c925760008415610c80578287015190505b610c8a8582610c0c565b865550610cf2565b601f198416610ca086610a7c565b60005b82811015610cc857848901518255600182019150602085019450602081019050610ca3565b86831015610ce55784890151610ce1601f891682610bee565b8355505b6001600288020188555050505b505050505050565b610d0381610517565b82525050565b6000610d24610d1f610d1a846104f7565b610b00565b6104f7565b9050919050565b6000610d3682610d09565b9050919050565b6000610d4882610d2b565b9050919050565b610d5881610d3d565b82525050565b600082825260208201905092915050565b6000610d7a82610551565b610d848185610d5e565b9350610d9481856020860161056d565b610d9d81610597565b840191505092915050565b600060c082019050610dbd6000830189610cfa565b610dca6020830188610d4f565b610dd76040830187610729565b8181036060830152610de98186610d6f565b9050610df86080830185610729565b81810360a0830152610e0a8184610d6f565b905097965050505050505056fea26469706673582212206adb4503bd758ffe80878af41bdfeeffeba98ecd1af8e965c14dad4b6b2bf9f664736f6c63430008130033",
  "linkReferences": {},
  "deployedLinkReferences": {}
}